{
  "_format": "hh-sol-artifact-1",
  "contractName": "RewardContract",
  "sourceName": "contracts/RewardContract.sol",
  "abi": [
    {
      "anonymous": false,
      "inputs": [
        {
          "indexed": true,
          "internalType": "address",
          "name": "user",
          "type": "address"
        },
        {
          "indexed": false,
          "internalType": "uint256",
          "name": "amount",
          "type": "uint256"
        }
      ],
      "name": "RewardClaimed",
      "type": "event"
    },
    {
      "inputs": [],
      "name": "claimBadge",
      "outputs": [],
      "stateMutability": "nonpayable",
      "type": "function"
    },
    {
      "inputs": [
        {
          "internalType": "uint256",
          "name": "_amount",
          "type": "uint256"
        }
      ],
      "name": "claimReward",
      "outputs": [],
      "stateMutability": "nonpayable",
      "type": "function"
    },
    {
      "inputs": [],
      "name": "getReward",
      "outputs": [
        {
          "internalType": "uint256",
          "name": "",
          "type": "uint256"
        }
      ],
      "stateMutability": "view",
      "type": "function"
    },
    {
      "inputs": [],
      "name": "hasClaimed",
      "outputs": [
        {
          "internalType": "bool",
          "name": "",
          "type": "bool"
        }
      ],
      "stateMutability": "view",
      "type": "function"
    },
    {
      "inputs": [
        {
          "internalType": "address",
          "name": "",
          "type": "address"
        }
      ],
      "name": "hasClaimedBadge",
      "outputs": [
        {
          "internalType": "bool",
          "name": "",
          "type": "bool"
        }
      ],
      "stateMutability": "view",
      "type": "function"
    },
    {
      "inputs": [
        {
          "internalType": "address",
          "name": "",
          "type": "address"
        }
      ],
      "name": "rewards",
      "outputs": [
        {
          "internalType": "uint256",
          "name": "",
          "type": "uint256"
        }
      ],
      "stateMutability": "view",
      "type": "function"
    }
  ],
  "bytecode": "0x608060405234801561001057600080fd5b5061078d806100206000396000f3fe608060405234801561001057600080fd5b50600436106100625760003560e01c80630700037d146100675780633d18b9121461009757806340849c8e146100b557806356e56942146100d3578063ae169a50146100dd578063ce92189f146100f9575b600080fd5b610081600480360381019061007c91906104af565b610129565b60405161008e91906104f5565b60405180910390f35b61009f610141565b6040516100ac91906104f5565b60405180910390f35b6100bd610187565b6040516100ca919061052b565b60405180910390f35b6100db6101db565b005b6100f760048036038101906100f29190610572565b610343565b005b610113600480360381019061010e91906104af565b61042c565b604051610120919061052b565b60405180910390f35b60006020528060005260406000206000915090505481565b60008060003373ffffffffffffffffffffffffffffffffffffffff1673ffffffffffffffffffffffffffffffffffffffff16815260200190815260200160002054905090565b6000600160003373ffffffffffffffffffffffffffffffffffffffff1673ffffffffffffffffffffffffffffffffffffffff16815260200190815260200160002060009054906101000a900460ff16905090565b60646000803373ffffffffffffffffffffffffffffffffffffffff1673ffffffffffffffffffffffffffffffffffffffff16815260200190815260200160002054101561025d576040517f08c379a0000000000000000000000000000000000000000000000000000000008152600401610254906105fc565b60405180910390fd5b600160003373ffffffffffffffffffffffffffffffffffffffff1673ffffffffffffffffffffffffffffffffffffffff16815260200190815260200160002060009054906101000a900460ff16156102ea576040517f08c379a00000000000000000000000000000000000000000000000000000000081526004016102e190610668565b60405180910390fd5b60018060003373ffffffffffffffffffffffffffffffffffffffff1673ffffffffffffffffffffffffffffffffffffffff16815260200190815260200160002060006101000a81548160ff021916908315150217905550565b60008111610386576040517f08c379a000000000000000000000000000000000000000000000000000000000815260040161037d906106d4565b60405180910390fd5b806000803373ffffffffffffffffffffffffffffffffffffffff1673ffffffffffffffffffffffffffffffffffffffff16815260200190815260200160002060008282546103d49190610723565b925050819055503373ffffffffffffffffffffffffffffffffffffffff167f106f923f993c2149d49b4255ff723acafa1f2d94393f561d3eda32ae348f72418260405161042191906104f5565b60405180910390a250565b60016020528060005260406000206000915054906101000a900460ff1681565b600080fd5b600073ffffffffffffffffffffffffffffffffffffffff82169050919050565b600061047c82610451565b9050919050565b61048c81610471565b811461049757600080fd5b50565b6000813590506104a981610483565b92915050565b6000602082840312156104c5576104c461044c565b5b60006104d38482850161049a565b91505092915050565b6000819050919050565b6104ef816104dc565b82525050565b600060208201905061050a60008301846104e6565b92915050565b60008115159050919050565b61052581610510565b82525050565b6000602082019050610540600083018461051c565b92915050565b61054f816104dc565b811461055a57600080fd5b50565b60008135905061056c81610546565b92915050565b6000602082840312156105885761058761044c565b5b60006105968482850161055d565b91505092915050565b600082825260208201905092915050565b7f496e73756666696369656e7420706f696e747320666f72206120626164676500600082015250565b60006105e6601f8361059f565b91506105f1826105b0565b602082019050919050565b60006020820190508181036000830152610615816105d9565b9050919050565b7f426164676520616c726561647920636c61696d65640000000000000000000000600082015250565b600061065260158361059f565b915061065d8261061c565b602082019050919050565b6000602082019050818103600083015261068181610645565b9050919050565b7f416d6f756e74206d7573742062652067726561746572207468616e207a65726f600082015250565b60006106be60208361059f565b91506106c982610688565b602082019050919050565b600060208201905081810360008301526106ed816106b1565b9050919050565b7f4e487b7100000000000000000000000000000000000000000000000000000000600052601160045260246000fd5b600061072e826104dc565b9150610739836104dc565b9250828201905080821115610751576107506106f4565b5b9291505056fea2646970667358221220c1ef53175a971b1b6d6e2b6728dcfb558588b758f513518cabe8a0b8001e9ce164736f6c63430008130033",
  "linkReferences": {},
  "deployedLinkReferences": {}
}